:0400000007EF00F016
:0A0008007D82BDED0EF060EF14F0F4
:10100000003738392F3435362A3132332D23303DED
:101010002B4C4544204F46460D004C4544204F4E36
:101020000D0025690000010E3C6E000E3D6E000EA5
:101030003E6E000E3F6E000E406E3950D8A423EF76
:1010400008F025EF08F049EF0AF0000E3C6E8EEF35
:101050000AF0AC98AC94B8963950D96EDA6ADECF03
:101060003AF0DDCF3BF03AC002F03BC003F0046A37
:10107000056A000E00EC10F002C014F003C015F079
:1010800004C016F005C017F0000E106E240E116E8D
:10109000F40E126E4A0E136EF0EC0CF010C041F01C
:1010A00011C042F012C043F013C044F0000E146EA1
:1010B000000E156E800E166E420E176E41C010F0B7
:1010C00042C011F043C012F044C013F0F0EC0CF039
:1010D00010C029F011C02AF012C02BF013C02CF060
:1010E000000E2D6E000E2E6E800E2F6EBF0E306E17
:1010F00090EC0AF029C03DF02AC03EF02BC03FF032
:101100002CC040F073EF0AF0AC98AC84B89639501C
:10111000D96EDA6ADECF3AF0DDCF3BF03AC002F0AA
:101120003BC003F0046A056A000E00EC10F002C038
:1011300014F003C015F004C016F005C017F0000E3F
:10114000106E240E116EF40E126E4A0E136EF0EC39
:101150000CF010C041F011C042F012C043F013C0B7
:1011600044F0000E146E000E156E800E166E410EC9
:10117000176E41C010F042C011F043C012F044C0DD
:1011800013F0F0EC0CF010C029F011C02AF012C0DE
:101190002BF013C02CF0000E2D6E000E2E6E800E64
:1011A0002F6EBF0E306E90EC0AF029C03DF02AC0C1
:1011B0003EF02BC03FF02CC040F073EF0AF0AC982B
:1011C000AC94B8863950D96EDA6ADECF3AF0DDCF0A
:1011D0003BF03AC002F03BC003F0046A056A000E1F
:1011E00000EC10F002C014F003C015F004C016F0BB
:1011F00005C017F0000E106E240E116EF40E126E64
:101200004A0E136EF0EC0CF010C041F011C042F029
:1012100012C043F013C044F0000E146E000E156EA1
:10122000800E166E410E176E41C010F042C011F0D4
:1012300043C012F044C013F0F0EC0CF010C029F0E1
:1012400011C02AF012C02BF013C02CF0000E2D6E2E
:10125000000E2E6E800E2F6EBF0E306E90EC0AF0D8
:1012600029C03DF02AC03EF02BC03FF02CC040F01A
:1012700073EF0AF0AC98AC84B8863950D96EDA6A4C
:10128000DECF3AF0DDCF3BF03AC002F03BC003F0D6
:10129000046A056A000E00EC10F002C014F003C0EE
:1012A00015F004C016F005C017F0000E106E240EE5
:1012B000116EF40E126E4A0E136EF0EC0CF010C0AC
:1012C00041F011C042F012C043F013C044F0000ED0
:1012D000146E000E156E800E166E400E176E41C015
:1012E00010F042C011F043C012F044C013F0F0EC13
:1012F0000CF010C029F011C02AF012C02BF013C05E
:101300002CF0000E2D6E000E2E6E800E2F6EBF0E76
:10131000306E90EC0AF029C03DF02AC03EF02BC0A0
:101320003FF02CC040F073EF0AF0AC88B89639500B
:10133000D96EDA6ADECF3AF0DDCF3BF03AC002F088
:101340003BC003F0046A056A000E00EC10F002C016
:1013500014F003C015F004C016F005C017F0000E1D
:10136000106E240E116EF40E126E4A0E136EF0EC17
:101370000CF010C041F011C042F012C043F013C095
:1013800044F0000E146E000E156E800E166E400EA8
:10139000176E41C010F042C011F043C012F044C0BB
:1013A00013F0F0EC0CF010C029F011C02AF012C0BC
:1013B0002BF013C02CF0000E2D6E000E2E6E800E42
:1013C0002F6EBF0E306E90EC0AF029C03DF02AC09F
:1013D0003EF02BC03FF02CC040F073EF0AF0AC8819
:1013E000B8863950D96EDA6ADECF3AF0DDCF3BF0FD
:1013F0003AC002F03BC003F0046A056A000E00EC3C
:1014000010F002C014F003C015F004C016F005C0BF
:1014100017F0000E106E240E116EF40E126E4A0EAE
:10142000136EF0EC0CF010C041F011C042F012C08D
:1014300043F013C044F0000E146E000E156E800EC3
:10144000166E400E176E41C010F042C011F043C03E
:1014500012F044C013F0F0EC0CF010C029F011C0F1
:101460002AF012C02BF013C02CF0000E2D6E000ECF
:101470002E6E800E2F6EBF0E306E90EC0AF029C0DB
:101480003DF02AC03EF02BC03FF02CC040F073EF7F
:101490000AF03950D96EDA6A020ED926DF503A6E58
:1014A0003B6A3B50000AD8B458EF0AF073EF0AF0D9
:1014B0003A50000AD8B429EF08F0010AD8B484EFF2
:1014C00008F0030AD8B4DFEF08F0010AD8B43AEF05
:1014D00009F0070AD8B495EF09F0010AD8B4EFEF84
:1014E00009F073EF0AF03DC002F03EC003F03FC0C8
:1014F00004F040C005F0EBEC11F00250AF6E3DC0BF
:1015000002F03EC003F03FC004F040C005F0EBEC39
:1015100011F003C002F0036A0250B06E3C5012009A
:101520002C50800B356E2C502C24376E2BAE9BEF3D
:101530000AF09DEF0AF09EEF0AF037803750D8B4DA
:10154000A4EF0AF0A6EF0AF0BBEF0AF03728D8A400
:10155000ACEF0AF0AEEF0AF0B6EF0AF0000E296E1B
:10156000000E2A6E000E2B6E000E2C6E2B8E000EBF
:101570002C6EC3EF0AF0000E296E000E2A6E000ECC
:101580002B6E000E2C6E3050800B366E3550361898
:10159000D8B4CDEF0AF0CFEF0AF0D0EF0AF0358CD7
:1015A00030503024366E2FAED8EF0AF0DAEF0AF062
:1015B000DBEF0AF036803650D8B4E1EF0AF0E3EF03
:1015C0000AF0F8EF0AF03628D8A4E9EF0AF0EBEFBA
:1015D0000AF0F3EF0AF0000E2D6E000E2E6E000ED4
:1015E0002F6E000E306E2F8E000E306E00EF0BF05F
:1015F000000E2D6E000E2E6E000E2F6E000E306E41
:101600003750365CD8B007EF0BF009EF0BF030EF36
:101610000BF035AC0EEF0BF010EF0BF012EF0BF000
:10162000800E351A37C038F036C037F038C036F083
:1016300029C038F02DC029F038C02DF02AC038F06C
:101640002EC02AF038C02EF02BC038F02FC02BF05F
:1016500038C02FF02CC038F030C02CF038C030F03B
:10166000000E386E375036C031F0326A315E000EEF
:10167000325A32BE45EF0BF0325009E11A0E315C9E
:10168000D8A045EF0BF047EF0BF07EEF0BF02950A1
:101690002A102B102C10D8A450EF0BF053EF0BF0A6
:1016A000010E54EF0BF0000E386E000E296E000E86
:1016B0002A6E000E2B6E000E2C6E36C037F087EFB0
:1016C0000BF038A066EF0BF068EF0BF06EEF0BF04D
:1016D000D89038300109386E70EF0BF0D89038325E
:1016E00029A075EF0BF077EF0BF078EF0BF0388E49
:1016F0002C342C322B322A322932372A3650375C9E
:10170000D8A085EF0BF087EF0BF061EF0BF035BC45
:101710008CEF0BF08EEF0BF0CEEF0BF03750D8A420
:1017200094EF0BF096EF0BF0A0EF0BF0000E296E8C
:10173000000E2A6E000E2B6E000E2C6EEFEF0CF0DA
:101740002D5029262E502A222F502B2230502C2269
:101750002CA0ADEF0BF0AFEF0BF05BEF0CF038A06F
:10176000B4EF0BF0B6EF0BF0BCEF0BF0D8903830C5
:101770000109386EBEEF0BF0D890383229A0C3EFC4
:101780000BF0C5EF0BF0C6EF0BF0388E2C342C327B
:101790002B322A322932372A5BEF0CF02D50295C8C
:1017A0002E502A582F502B582C50800A316E305012
:1017B000800A3158D8B0DFEF0BF0E1EF0BF00CEFFF
:1017C0000CF029502D5C316E2A502E58326E2B5061
:1017D0002F58336E2C503058346EFF0E3124296E42
:1017E000FF0E32202A6EFF0E33202B6EFF0E3420A8
:1017F0002C6E800E351A386C3850D8A402EF0CF0DD
:1018000004EF0CF014EF0CF0010E2926000E2A2232
:101810002B222C2214EF0CF02D50295E2E502A5A28
:101820002F502B5A30502C5A29502A102B102C1084
:10183000D8A41DEF0CF01FEF0CF054EF0CF0385053
:10184000D8A425EF0CF027EF0CF054EF0CF0000EAD
:10185000296E000E2A6E000E2B6E000E2C6EEFEF1E
:101860000CF0D89029362A362B362C3638AE3BEF82
:101870000CF03DEF0CF03EEF0CF0298038A043EF68
:101880000CF045EF0CF049EF0CF0D88038364BEFF8
:101890000CF0D89038363750D8B451EF0CF053EFE5
:1018A0000CF054EF0CF037062BAE59EF0CF05BEF59
:1018B0000CF031EF0CF0000E366E38AE62EF0CF02B
:1018C00064EF0CF07CEF0CF038C031F07F0E311675
:1018D000D8B46DEF0CF06FEF0CF073EF0CF0010E5D
:1018E000366E7CEF0CF029A078EF0CF07AEF0CF05C
:1018F0007CEF0CF06FEF0CF03650D8B482EF0CF0A8
:1019000084EF0CF0AFEF0CF0010E2926000E2A2216
:101910002B222C222CA08FEF0CF091EF0CF0AFEFCC
:101920000CF029C031F02AC032F02BC033F02CC0AB
:1019300034F03434343233323232313231C029F07F
:1019400032C02AF033C02BF034C02CF03728D8B482
:10195000ACEF0CF0AEEF0CF0AFEF0CF0372A3728FD
:10196000D8B4B5EF0CF0B7EF0CF0BFEF0CF0375078
:10197000D8A4BDEF0CF0BFEF0CF0D1EF0CF0000ECF
:10198000296E000E2A6E000E2B6E000E2C6E375044
:10199000D8A4CDEF0CF0CFEF0CF0D1EF0CF0000E8F
:1019A000356E37A0D6EF0CF0D8EF0CF0DBEF0CF073
:1019B0002B8EDCEF0CF02B9ED89037302C6E35AE92
:1019C000E4EF0CF0E6EF0CF0E7EF0CF02C8E29C002
:1019D00029F02AC02AF02BC02BF02CC02CF01200CA
:1019E0001350800B206E13501324276E12AEFBEFA2
:1019F0000CF0FDEF0CF0FEEF0CF027802750D8B470
:101A000004EF0DF006EF0DF01BEF0DF02728D8A422
:101A10000CEF0DF00EEF0DF016EF0DF0000E106E46
:101A2000000E116E000E126E000E136E128E000E5E
:101A3000136E23EF0DF0000E106E000E116E000EEF
:101A4000126E000E136E1750800B201A17501724B9
:101A5000286E16AE2EEF0DF030EF0DF031EF0DF0D9
:101A600028802850D8B437EF0DF039EF0DF04EEF45
:101A70000DF02828D8A43FEF0DF041EF0DF049EF0D
:101A80000DF0000E146E000E156E000E166E000E98
:101A9000176E168E000E176E56EF0DF0000E146EB8
:101AA000000E156E000E166E000E176E14501510F7
:101AB00016101710D8A45FEF0DF061EF0DF079EF5D
:101AC0000DF0000E106E000E116E000E126E000E64
:101AD000136E800E12127F0E13122050131210C0BC
:101AE00010F011C011F012C012F013C013F0BCEFCF
:101AF0000EF02750D8A47FEF0DF081EF0DF08BEFA3
:101B00000DF0000E106E000E116E000E126E000E23
:101B1000136EBCEF0EF0285027C018F0196A185E3B
:101B2000000E195A7F0E1824216E000E1920226E05
:101B300010C01CF011C01DF012C01EF013C01FF029
:101B4000000E106E000E116E000E126E000E136E5F
:101B5000000E236E000E246E000E256E000E266E03
:101B6000000E286EECEF0DF02850D8B4BAEF0DF04F
:101B7000BCEF0DF0D3EF0DF0D8901C361D361E369D
:101B80001F36D890103611361236133626AECBEFEC
:101B90000DF0CDEF0DF0CEEF0DF01080D890233684
:101BA00024362536263614501C5C15501D58165008
:101BB0001E5817501F58D8A0E0EF0DF0E2EF0DF0BF
:101BC000EBEF0DF0268C14501C5E15501D5A16506C
:101BD0001E5A17501F5A282A190E2864F2EF0DF0CA
:101BE000F4EF0DF0B4EF0DF01C501D101E101F107F
:101BF000D8B4FDEF0DF0FFEF0DF017EF0EF02380DE
:101C000017EF0EF0D890103611361236133626AE76
:101C10000CEF0EF00EEF0EF00FEF0EF01080D890DC
:101C200023362436253626362106D8A0220612AEC3
:101C30001CEF0EF01EEF0EF002EF0EF0000E286EFD
:101C400026AE25EF0EF027EF0EF04BEF0EF0FF0E55
:101C50002314186EFF0E2414196EFF0E25141A6E2D
:101C60007F0E26141B6E185019101A101B10D8B4B2
:101C70003CEF0EF03EEF0EF042EF0EF0010E286E3C
:101C80004BEF0EF010A047EF0EF049EF0EF04BEFC8
:101C90000EF03EEF0EF02850D8B451EF0EF053EF97
:101CA0000EF077EF0EF0010E1026000E1122122218
:101CB000132213A05EEF0EF060EF0EF077EF0EF040
:101CC00010C018F011C019F012C01AF013C01BF0A8
:101CD0001B341B321A321932183218C010F019C0D6
:101CE00011F01AC012F01BC013F0214A222A22BEA2
:101CF00082EF0EF0225008E12128D8A082EF0EF0EA
:101D000084EF0EF08FEF0EF0000E226E2168000EB1
:101D1000106E000E116E000E126E000E136E22BEBB
:101D20009CEF0EF0225006E12104D8B09AEF0EF09D
:101D30009CEF0EF0AAEF0EF0000E226E000E216E48
:101D4000000E106E000E116E000E126E000E136E5D
:101D5000000E206E21C027F027A0B1EF0EF0B3EFE8
:101D60000EF0B6EF0EF0128EB7EF0EF0129ED89076
:101D70002730136E6DEF0DF012000600F2A8C3EFCE
:101D80000EF0C5EF0EF0CEEF0EF0F2A2CAEF0EF09D
:101D9000CCEF0EF0CEEF0EF049EC15F0F0A6D3EF3D
:101DA0000EF0D5EF0EF0DEEF0EF0F0A0DAEF0EF051
:101DB000DCEF0EF0DEEF0EF047EC15F0F0A8E3EFED
:101DC0000EF0E5EF0EF0EEEF0EF0F0A2EAEF0EF0FF
:101DD000ECEF0EF0EEEF0EF045EC15F0F2A6F3EF9F
:101DE0000EF0F5EF0EF010EF0FF0F2A0FAEF0EF09C
:101DF000FCEF0EF010EF0FF081A801EF0FF003EFF2
:101E00000FF010EF0FF07904D8A409EF0FF00BEFEB
:101E10000FF010EF0FF0000E796E000E11EC15F0C0
:101E2000F2A615EF0FF017EF0FF032EF0FF0F2A060
:101E30001CEF0FF01EEF0FF032EF0FF081B823EF21
:101E40000FF025EF0FF032EF0FF07950D8A42BEF01
:101E50000FF02DEF0FF032EF0FF0010E796E010E43
:101E600011EC15F0F2A637EF0FF039EF0FF054EF49
:101E70000FF0F2A03EEF0FF040EF0FF054EF0FF035
:101E800081AA45EF0FF047EF0FF054EF0FF0780401
:101E9000D8A44DEF0FF04FEF0FF054EF0FF0000EFE
:101EA000786E000E04EC15F0F2A659EF0FF05BEF20
:101EB0000FF076EF0FF0F2A060EF0FF062EF0FF08F
:101EC00076EF0FF081BA67EF0FF069EF0FF076EF62
:101ED0000FF07850D8A46FEF0FF071EF0FF076EF9E
:101EE0000FF0010E786E010E04EC15F0F2A67BEFF8
:101EF0000FF07DEF0FF098EF0FF0F2A082EF0FF0F0
:101F000084EF0FF098EF0FF081AC89EF0FF08BEFBB
:101F10000FF098EF0FF07704D8A491EF0FF093EF44
:101F20000FF098EF0FF0000E776E000EF7EC14F044
:101F3000F2A69DEF0FF09FEF0FF0BAEF0FF0F2A0B7
:101F4000A4EF0FF0A6EF0FF0BAEF0FF081BCABEFEC
:101F50000FF0ADEF0FF0BAEF0FF07750D8A4B3EF5A
:101F60000FF0B5EF0FF0BAEF0FF0010E776E010E24
:101F7000F7EC14F0F2A6BFEF0FF0C1EF0FF0DCEFBB
:101F80000FF0F2A0C6EF0FF0C8EF0FF0DCEF0FF08C
:101F900081AECDEF0FF0CFEF0FF0DCEF0FF0760456
:101FA000D8A4D5EF0FF0D7EF0FF0DCEF0FF0000E55
:101FB000766E000EEAEC14F0F2A6E1EF0FF0E3EF1C
:101FC0000FF0FEEF0FF0F2A0E8EF0FF0EAEF0FF0E6
:101FD000FEEF0FF081BEEFEF0FF0F1EF0FF0FEEF2D
:101FE0000FF07650D8A4F7EF0FF0F9EF0FF0FEEFF7
:101FF0000FF0010E766E010EEAEC14F07D921100E6
:102000000A6E0A50D8B407EF10F009EF10F02BEF6A
:1020100010F005BE10EF10F00EEF10F02BEF10F0E7
:1020200002C006F003C007F004C008F005C009F0C4
:10203000061E071E081E091E062A000E0722082279
:10204000092206C00CF007C00DF008C00EF009C050
:102050000FF033EF10F002C00CF003C00DF004C01D
:102060000EF005C00FF00250031004100510D8A4A4
:102070003CEF10F03EEF10F048EF10F0000E026E53
:10208000000E036E000E046E000E056ED9EF10F008
:10209000960E0B6E52EF10F00B2AD8900F320E32C4
:1020A0000D320C32000E0C14066E000E0D14076E6D
:1020B000000E0E14086EFE0E0F14096E0650071067
:1020C00008100910D8A467EF10F069EF10F04CEF7A
:1020D00010F077EF10F00B2A010E0C26000E0D22E7
:1020E0000E220F22D8900F320E320D320C32000E1B
:1020F0000C14066E000E0D14076E000E0E14086E02
:10210000FF0E0F14096E0650071008100910D8A40E
:102110008CEF10F08EEF10F06BEF10F096EF10F0E8
:102120000B06D8900C360D360E360F360EBE9BEFD2
:1021300010F09DEF10F0A5EF10F0020E0B60A3EF72
:1021400010F0A5EF10F090EF10F00BB0AAEF10F028
:10215000ACEF10F0ADEF10F00E9ED8900B320BC02C
:1021600006F0076A086A096A06C009F0086A076A81
:10217000066A06500C1207500D1208500E12095034
:102180000F120A50D8B4C7EF10F0C9EF10F0D1EF1A
:1021900010F005BED0EF10F0CEEF10F0D1EF10F040
:1021A0000F8E0CC002F00DC003F00EC004F00FC083
:1021B00005F01200010E086E0250D8B4E2EF10F0E4
:1021C000E4EF10F0F4EF10F00250D96EDA6ADF306D
:1021D000E832E832070B036E070E0364F2EF10F0EB
:1021E000F4EF10F04BEF11F0000E086E61EF11F0FC
:1021F0000250D96EDA6ADF30E832E832070B036E3C
:10220000010E046E032A07EF11F0D8900436032E56
:1022100005EF11F00450FF0A056E0250D96EDA6A1C
:10222000DF50070B020DF350900FD96EDA6ADECF44
:1022300006F0DDCF07F006C0D9FF07C0DAFF055072
:10224000DF1661EF11F00250D96EDA6ADF30E83242
:10225000E832070B036E010E046E032A32EF11F011
:10226000D8900436032E30EF11F00250D96EDA6A9E
:10227000DF50070B020DF350900FD96EDA6ADECFF4
:1022800005F0DDCF06F005C0D9FF06C0DAFF045027
:10229000DF1261EF11F00250D96EDA6ADFBC53EF42
:1022A00011F056EF11F0010E57EF11F0000E000A79
:1022B000D8B4F8EF10F0010AD8B423EF11F0F4EF1E
:1022C00010F008501200010E096E0250D8B46BEFE6
:1022D00011F06DEF11F07DEF11F00250D96EDA6A56
:1022E000DF30E832E832070B046E070E04647BEF40
:1022F00011F07DEF11F0D4EF11F0000E096EE9EF4F
:1023000011F00250D96EDA6ADF30E832E832070B9A
:10231000046E010E056E042A90EF11F0D890053678
:10232000042E8EEF11F00550FF0A066E0250D96E92
:10233000DA6ADF50070B020DF350880FD96EDA6AA4
:10234000DECF07F0DDCF08F007C0D9FF08C0DAFF05
:102350000650DF16E9EF11F00250D96EDA6ADF306D
:10236000E832E832070B046E010E056E042ABBEF5B
:1023700011F0D8900536042EB9EF11F00250D96E45
:10238000DA6ADF50070B020DF350880FD96EDA6A54
:10239000DECF06F0DDCF07F006C0D9FF07C0DAFFB9
:1023A0000550DF12E9EF11F00350046E056A055085
:1023B000000AD8B4DEEF11F07DEF11F00450000AEE
:1023C000D8B481EF11F0010AD8B4ACEF11F07DEF71
:1023D00011F009501200043405340B6E0B50D8A4D0
:1023E000F4EF11F0F6EF11F000EF12F0000E026EB4
:1023F000000E036E000E046E000E056E6DEF12F0FF
:1024000002C006F003C007F004C008F005C009F0E0
:10241000200E10EF12F0D89009320832073206323F
:10242000E82E0BEF12F006500A6E048EFF0E021615
:10243000FF0E0316FF0E0416000E0516960E0B5E19
:102440000BBE27EF12F025EF12F03DEF12F00B500C
:10245000800A970FD8B02FEF12F031EF12F033EF60
:1024600012F0F6EF11F0D890053204320332023246
:102470000B3E33EF12F055EF12F01F0E0B6443EFDB
:1024800012F045EF12F04DEF12F0F6EF11F0D89088
:1024900002360336043605360B060B50D8A453EF2C
:1024A00012F055EF12F047EF12F00A50D8B45BEF7C
:1024B00012F05DEF12F065EF12F0051E041E031E10
:1024C000026C000E03220422052202C002F003C0A7
:1024D00003F004C004F005C005F01200010E036E05
:1024E0000250D8A476EF12F078EF12F07CEF12F0E1
:1024F000000E036EC3EF12F00250D96EDA6A030EBB
:10250000D926DFAA86EF12F088EF12F0C3EF12F09F
:10251000AC8A0250D96EDA6A030ED926DFAC93EF8B
:1025200012F095EF12F098EF12F09D88A5EF12F0DF
:102530000250D96EDA6A030ED926DFBCA2EF12F080
:10254000A4EF12F0A5EF12F09D980250D96EDA6A4E
:10255000030ED926DFAEAFEF12F0B1EF12F0B4EFF9
:1025600012F0AC8CC3EF12F00250D96EDA6A030E8F
:10257000D926DFBEBEEF12F0C0EF12F0C3EF12F0AB
:10258000AC9CC3EF12F003501200010E036E025018
:10259000D8A4CDEF12F0CFEF12F0D3EF12F0000E6F
:1025A000036E1AEF13F00250D96EDA6A040ED926C0
:1025B000DFAADDEF12F0DFEF12F01AEF13F0AB88B5
:1025C0000250D96EDA6A040ED926DFACEAEF12F0B7
:1025D000ECEF12F0EFEF12F09D8AFCEF12F00250D8
:1025E000D96EDA6A040ED926DFBCF9EF12F0FBEFE0
:1025F00012F0FCEF12F09D9A0250D96EDA6A040EC6
:10260000D926DFAE06EF13F008EF13F00BEF13F04F
:10261000AB8C1AEF13F00250D96EDA6A040ED92689
:10262000DFBE15EF13F017EF13F01AEF13F0AB9CAA
:102630001AEF13F00350120042EC15F08BEC14F07B
:10264000750E026ECEEC14F0556E5504D8A42BEF27
:1026500013F02DEF13F020EF13F06F0E7518D8A4C0
:1026600034EF13F036EF13F044EF13F07B0E0A6EE5
:1026700097EC13F01A0E036E000E056E070E046E33
:1026800001EC14F020EF13F0660E7518D8A44BEF90
:1026900013F04DEF13F05BEF13F07B0E0A6ECCECF2
:1026A00013F0110E036E000E056E080E046E01ECA1
:1026B00014F020EF13F020EF13F007EF00F0010EFD
:1026C0000F6E0D50D8A467EF13F069EF13F06DEFA4
:1026D00013F0000E0F6E95EF13F074C010F00D5054
:1026E000D96EDA6ADF500F0B0E6E10500E18F80B11
:1026F0000E18106E0D50D96EDA6ADF38070B0E6EA9
:102700000E460E460E4610500E18C70B0E18106ED1
:10271000109C0D50D96EDA6ADFAE02D0108E01D057
:10272000109E100E0A6E31EC14F00F5012000A5079
:10273000D8A49DEF13F09FEF13F0A1EF13F0CBEFB0
:1027400013F073C00CF00A50D96EDA6ADF500F0B29
:102750000B6E0C500B18F80B0B180C6E0A50D96E40
:10276000DA6ADF38070B0B6E0B460B460B460C5034
:102770000B18C70B0B180C6E0C9C0A50D96EDA6A3A
:10278000DFAE02D00C8E01D00C9E0C0E026E010E3C
:10279000036E63EC11F012000A50D8A4D2EF13F0CC
:1027A000D4EF13F0D6EF13F000EF14F072C00CF07A
:1027B0000A50D96EDA6ADF500F0B0B6E0C500B18F3
:1027C000F80B0B180C6E0A50D96EDA6ADF38070B5B
:1027D0000B6E0B460B460B460C500B18C70B0B1819
:1027E0000C6E0C9C0A50D96EDA6ADFAE02D00C8EE9
:1027F00001D00C9E0C0E026E000E036E63EC11F005
:102800001200010E076E0350D8A409EF14F00BEF6D
:1028100014F00FEF14F0000E076E2FEF14F0000EFF
:10282000096E000E086E24EF14F003500824066EA3
:1028300006C0F6FF100EF76EF86A0800F5502AEC95
:1028400015F0076E084A092A0450085C055009581B
:10285000D8A02DEF14F02FEF14F015EF14F007505F
:1028600012000A50D8B437EF14F039EF14F049EFE2
:1028700014F00A50D96EDA6ADF30E832E832070B1A
:102880000B6E070E0B6447EF14F049EF14F04DEF99
:1028900014F0000E0C6E5EEF14F00AC002F0DAECD9
:1028A00010F00C6E0AC002F00A50D96EDA6A000EFF
:1028B000DFBE010E036E63EC11F00C6E0C501200C3
:1028C0003C0EF66E2A0EF76E000EF86E00EE80F0EB
:1028D00010EE18F00900F5CFEEFFE550E150FAE1F7
:1028E0007E0EF66E2A0EF76E000EF86E00EE76F093
:1028F00010EE06F00900F5CFEEFFE550E150FAE1E9
:1029000000EE56F0200EEE6AE806FDE17D907D9225
:1029100000011CEF13F0250E486E800E476E000E6E
:10292000496E4A8A4A9C4A9E4B8A4B9C4B9E000E9B
:102930004D6E000E4E6E000E4F6E000E506E000E6D
:10294000516E000E526E000E536E000E546E470E06
:10295000456EADEC14F07C6E12004550D8A4B3EF78
:1029600014F0B5EF14F0B9EF14F0000E466ECCEF92
:1029700014F0AB9E948C948E45C039F013EC08F0A3
:10298000466E45C002F06EEC12F0466E45C002F095
:10299000C5EC12F0466EAB8E46501200010E036E6F
:1029A0000250D8A4D6EF14F0D8EF14F0DCEF14F0F6
:1029B000000E036EE8EF14F09EAAE1EF14F0E3EFCF
:1029C00014F0D8EF14F00250D96EDA6AAECFDFFF00
:1029D00003501200016EF2900150D8A4F2EF14F0EF
:1029E000F4EF14F0F6EF14F0F6EF14F01200016EAD
:1029F000F2900150D8A4FFEF14F001EF15F003EFAF
:102A000015F003EF15F01200016EF2900150D8A4FA
:102A10000CEF15F00EEF15F010EF15F010EF15F0AC
:102A20001200016EF2900150D8A419EF15F01BEFBF
:102A300015F01DEF15F01DEF15F01200800F810F3E
:102A4000820F830F890F8A0F8B0F8C0F920F930FBA
:102A5000940F950F026EACA230EF15F032EF15F027
:102A60002BEF15F002C0ADFF010E12007B0E0D6EB4
:102A70005FEC13F07A0E0D6E5FEC13F012000101A3
:102A80000101120336EC15F01200F0921200F090E2
:062A90001200F292120098
:020000040030CA
:0E000000FF02091EFF8181FF0FC00FE00F40BD
:00000001FF
