:040000000EEF0AF005
:101000000000010E236E1D50D8B409EF08F00BEF5D
:1010100008F01BEF08F01D50D96EDA6ADF30E832B5
:10102000E832070B1E6E070E1E6419EF08F01BEF67
:1010300008F072EF08F0000E236E88EF08F01D50E4
:10104000D96EDA6ADF30E832E832070B1E6E010E25
:101050001F6E1E2A2EEF08F0D8901F361E2E2CEF82
:1010600008F01F50FF0A206E1D50D96EDA6ADF505B
:10107000070B020DF350110FD96EDA6ADECF21F0A3
:10108000DDCF22F021C0D9FF22C0DAFF2050DF16C9
:1010900088EF08F01D50D96EDA6ADF30E832E832A6
:1010A000070B1E6E010E1F6E1E2A59EF08F0D89016
:1010B0001F361E2E57EF08F01D50D96EDA6ADF502A
:1010C000070B020DF350110FD96EDA6ADECF20F054
:1010D000DDCF21F020C0D9FF21C0DAFF1F50DF1281
:1010E00088EF08F01D50D96EDA6ADFBC7AEF08F09D
:1010F0007DEF08F0010E7EEF08F0000E000AD8B474
:101100001FEF08F0010AD8B44AEF08F01BEF08F00F
:1011100023501200010E246E1D50D8B492EF08F037
:1011200094EF08F0A4EF08F01D50D96EDA6ADF30B2
:10113000E832E832070B1F6E070E1F64A2EF08F0BB
:10114000A4EF08F0FBEF08F0000E246E10EF09F09A
:101150001D50D96EDA6ADF30E832E832070B1F6EB5
:10116000010E206E1F2AB7EF08F0D89020361F2EF0
:10117000B5EF08F02050FF0A216E1D50D96EDA6AD3
:10118000DF50070B020DF350090FD96EDA6ADECF7C
:1011900022F0DDCF23F022C0D9FF23C0DAFF215097
:1011A000DF1610EF09F01D50D96EDA6ADF30E83231
:1011B000E832070B1F6E010E206E1F2AE2EF08F0C7
:1011C000D89020361F2EE0EF08F01D50D96EDA6A55
:1011D000DF50070B020DF350090FD96EDA6ADECF2C
:1011E00021F0DDCF22F021C0D9FF22C0DAFF20504C
:1011F000DF1210EF09F01E501F6E206A2050000A07
:10120000D8B405EF09F0A4EF08F01F50000AD8B4D5
:10121000A8EF08F0010AD8B4D3EF08F0A4EF08F063
:10122000245012001D50D8B418EF09F01AEF09F03D
:101230002AEF09F01D50D96EDA6ADF30E832E83261
:10124000070B1E6E070E1E6428EF09F02AEF09F047
:101250002CEF09F052EF09F01D50D96EDA6ADF3039
:10126000E832E832070B1E6E010E1F6E1E2A3BEF9E
:1012700009F0D8901F361E2E39EF09F01D50D96E97
:10128000DA6ADF50070B020DF350090FD96EDA6AE4
:10129000DECF20F0DDCF21F020C0D9FF21C0DAFF62
:1012A0001F50DF1A1200010E2A6E2850D8A45BEFDF
:1012B00009F05DEF09F061EF09F0000E2A6E89EF89
:1012C00009F031C02BF02850D96EDA6ADF500F0BCD
:1012D000296E2B502918F80B29182B6E2850D96E1F
:1012E000DA6ADF38070B296E2946294629462B5032
:1012F0002918C70B29182B6E2B9C2850D96EDA6A37
:10130000DFAE02D02B8E01D02B9E2B0E256EBEECB5
:1013100009F02A5012002250D8A491EF09F093EF5F
:1013200009F095EF09F0BDEF09F02EC024F022502E
:10133000D96EDA6ADF500F0B236E24502318F80B96
:101340002318246E2250D96EDA6ADF38070B236E19
:1013500023462346234624502318C70B2318246E04
:10136000249C2250D96EDA6ADFAE02D0248E01D0DE
:10137000249E240E1D6E12EC09F012002550D8B4E4
:10138000C4EF09F0C6EF09F0D6EF09F02550D96E89
:10139000DA6ADF30E832E832070B266E070E266481
:1013A000D4EF09F0D6EF09F0D8EF09F0E9EF09F032
:1013B00025C01DF001EC08F0276E25C01DF025505A
:1013C000D96EDA6A000EDFBE010E1E6E8AEC08F0DE
:1013D000276E120027EC0AF01C0E226E8BEC09F02F
:1013E0001B0E226E8BEC09F01A0E226E8BEC09F0AC
:1013F000190E226E8BEC09F0C30E2D6E500E2C6E62
:101400002C06D8A02D062DBE08EF0AF00AEF0AF030
:1014100000EF0AF0ECEF09F000EF00F0700EF66E4E
:10142000140EF76E000EF86E00EE01F010EE1CF0D8
:101430000900F5CFEEFFE550E150FAE1316A306A7C
:101440002F6A2E6A000EF86E0001EAEF09F01C0EFA
:10145000286E53EC09F01B0E286E53EC09F01A0E9F
:10146000286E53EC09F0190E286E53EC09F01200A7
:10147000800F810F820F830F890F8A0F8B0F8C0FC4
:0C148000920F930F940F950F322212026E
:020000040030CA
:0E000000FF02091EFF8181FF0FC00FE00F40BD
:00000001FF
