:0400000072EF0BF0A0
:101000000000010E2B6E2550D8B409EF08F00BEF4D
:1010100008F01BEF08F02550D96EDA6ADF30E832AD
:10102000E832070B266E070E266419EF08F01BEF57
:1010300008F072EF08F0000E2B6E88EF08F02550D4
:10104000D96EDA6ADF30E832E832070B266E010E1D
:10105000276E262A2EEF08F0D8902736262E2CEF62
:1010600008F02750FF0A286E2550D96EDA6ADF5043
:10107000070B020DF350110FD96EDA6ADECF29F09B
:10108000DDCF2AF029C0D9FF2AC0DAFF2850DF16A9
:1010900088EF08F02550D96EDA6ADF30E832E8329E
:1010A000070B266E010E276E262A59EF08F0D890FE
:1010B0002736262E57EF08F02550D96EDA6ADF5012
:1010C000070B020DF350110FD96EDA6ADECF28F04C
:1010D000DDCF29F028C0D9FF29C0DAFF2750DF1261
:1010E00088EF08F02550D96EDA6ADFBC7AEF08F095
:1010F0007DEF08F0010E7EEF08F0000E000AD8B474
:101100001FEF08F0010AD8B44AEF08F01BEF08F00F
:101110002B501200010E2C6E2550D8B492EF08F01F
:1011200094EF08F0A4EF08F02550D96EDA6ADF30AA
:10113000E832E832070B276E070E2764A2EF08F0AB
:10114000A4EF08F0FBEF08F0000E2C6E10EF09F092
:101150002550D96EDA6ADF30E832E832070B276EA5
:10116000010E286E272AB7EF08F0D8902836272ED0
:10117000B5EF08F02850FF0A296E2550D96EDA6ABB
:10118000DF50070B020DF350090FD96EDA6ADECF7C
:101190002AF0DDCF2BF02AC0D9FF2BC0DAFF29506F
:1011A000DF1610EF09F02550D96EDA6ADF30E83229
:1011B000E832070B276E010E286E272AE2EF08F0AF
:1011C000D8902836272EE0EF08F02550D96EDA6A3D
:1011D000DF50070B020DF350090FD96EDA6ADECF2C
:1011E00029F0DDCF2AF029C0D9FF2AC0DAFF285024
:1011F000DF1210EF09F02650276E286A2850000AE7
:10120000D8B405EF09F0A4EF08F02750000AD8B4CD
:10121000A8EF08F0010AD8B4D3EF08F0A4EF08F063
:101220002C5012008DEC0BF01E0E2B6E220E2C6E2D
:1012300081EC09F03B6E1B0E2B6E210E2C6E81ECA7
:1012400009F03B6E2250D8A428EF09F02AEF09F0EC
:101250003BEF09F0344A352AF50E345C010E35585F
:10126000D8A035EF09F037EF09F041EF09F0000E93
:101270001A6E41EF09F0000E356E000E346E010E4D
:101280001A6E19501A18D8B448EF09F04AEF09F04D
:1012900014EF09F01AC019F01A50D8A452EF09F04F
:1012A00054EF09F014EF09F0030E3618D8A45BEFE1
:1012B00009F05DEF09F05FEF09F0000E366E362A97
:1012C0006EEF09F051EC0BF014EF09F0F7EC0AF0B7
:1012D00014EF09F0C9EC0AF014EF09F03650010AD6
:1012E000D8B462EF09F0030AD8B466EF09F0010A36
:1012F000D8B46AEF09F07DEF09F014EF09F000EFC0
:1013000000F0000E2F6E2B50D8B489EF09F08BEF50
:1013100009F093EF09F02C50D8A491EF09F093EF66
:1013200009F097EF09F0000E2E6ED8EF09F02BC0F0
:1013300025F02F0E266EDAEC09F02B50D96EDA6A02
:10134000020ED926DF50D8A4A8EF09F0AAEF09F0C1
:10135000BFEF09F02F04D8A4B0EF09F0B2EF09F005
:10136000B8EF09F02C50D96EDA6ADF6AD6EF09F0CF
:101370002C50D96EDA6A010EDF6ED6EF09F02B50D1
:10138000D96EDA6A020ED926DE04D8A4CAEF09F0B3
:10139000CCEF09F0D6EF09F02F04D8A4D2EF09F072
:1013A000D4EF09F0B2EF09F0B8EF09F0010E2E6E9C
:1013B0002E5012002550D8B4E0EF09F0E2EF09F00A
:1013C000FAEF09F02650D8B4E8EF09F0EAEF09F097
:1013D000FAEF09F02550D96EDA6ADF30E832E832E8
:1013E000070B276E070E2764F8EF09F0FAEF09F0F4
:1013F000FCEF09F026EF0AF02650D96EDA6A255084
:10140000E16EE26AE730E832E832070B276E2550DA
:10141000E16EE26AE750070B020DF350010FE16E37
:10142000E26AE6CF28F0E5CF29F028C0E1FF29C025
:10143000E2FFE7502A6E272A20EF0AF0D8902A32DE
:10144000272E1EEF0AF02A50010BDF6E1200010E4C
:10145000326E3050D8A42FEF0AF031EF0AF035EF9A
:101460000AF0000E326E5DEF0AF03AC033F03050F1
:10147000D96EDA6ADF500F0B316E33503118F80B2A
:101480003118336E3050D96EDA6ADF38070B316E9F
:1014900031463146314633503118C70B3118336E5F
:1014A000339C3050D96EDA6ADFAE02D0338E01D071
:1014B000339E330E2D6E25EC0BF0325012002D5062
:1014C000D8A465EF0AF067EF0AF069EF0AF093EF2E
:1014D0000AF039C02FF02D50D96EDA6ADF500F0BA9
:1014E0002E6E2F502E18F80B2E182F6E2D50D96EF1
:1014F000DA6ADF38070B2E6E2E462E462E462F5008
:101500002E18C70B2E182F6E2F9C2D50D96EDA6A0D
:10151000DFAE02D02F8E01D02F9E2F0E256E010E32
:10152000266E8AEC08F012002D50D8A49AEF0AF02B
:101530009CEF0AF09EEF0AF0C8EF0AF038C02FF0D7
:101540002D50D96EDA6ADF500F0B2E6E2F502E18E9
:10155000F80B2E182F6E2D50D96EDA6ADF38070B74
:101560002E6E2E462E462E462F502E18C70B2E18A6
:101570002F6E2F9C2D50D96EDA6ADFAE02D02F8EDF
:1015800001D02F9E2F0E256E000E266E8AEC08F0DD
:101590001200000E326E000E326E240E2D6E5FECC5
:1015A0000AF0020E316E040E306EBA0EE82EFED72F
:1015B000302EFCD7312EFAD700D0240E2D6E94ECAD
:1015C0000AF0020E316E040E306EBA0EE82EFED70F
:1015D000302EFCD7312EFAD700D0322A020E3264D8
:1015E000F4EF0AF0F6EF0AF0CDEF0AF01200000E69
:1015F000326E000E326E240E2D6E5FEC0AF0020E7B
:10160000316E040E306EBA0EE82EFED7302EFCD7A7
:10161000312EFAD700D0240E2D6E94EC0AF0020E73
:10162000316E040E306EBA0EE82EFED7302EFCD787
:10163000312EFAD700D0322A010E326422EF0BF09D
:1016400024EF0BF0FBEF0AF012002D50D8B42BEF73
:101650000BF02DEF0BF03DEF0BF02D50D96EDA6A49
:10166000DF30E832E832070B2E6E070E2E643BEFB8
:101670000BF03DEF0BF03FEF0BF050EF0BF02DC0F8
:1016800025F001EC08F02F6E2DC025F02D50D96EFD
:10169000DA6A000EDFBE010E266E8AEC08F02F6EAD
:1016A0001200240E2D6E5FEC0AF0020E316E040E55
:1016B000306EBA0EE82EFED7302EFCD7312EFAD778
:1016C00000D0240E2D6E94EC0AF0020E316E040E42
:1016D000306EBA0EE82EFED7302EFCD7312EFAD758
:1016E00000D012006A0EF66E170EF76E000EF86E3E
:1016F00000EE01F010EE24F00900F5CFEEFFE5500A
:10170000E150FAE100EE34F0070EEE6AE806FDE182
:10171000000EF86E000112EF09F01E0E2C6EA2EC06
:101720000BF03B6E1B0E2C6EA2EC0BF03B6E240EEE
:10173000306E27EC0AF03B6E230E306E27EC0AF079
:101740003B6E12002C50D8A4A8EF0BF0AAEF0BF0C0
:10175000AEEF0BF0000E2D6EB3EF0BF02CC025F0AA
:1017600001EC08F02D6E2D501200800F810F820FBA
:10177000830F890F8A0F8B0F8C0F920F930F940F8B
:0E178000950F0101C301015201000101120287
:020000040030CA
:0E000000FF02091EFF8181FF0FC00FE00F40BD
:00000001FF
