:0400000007EF00F016
:0A0008007E82B5ED0EF07BEF13F0E1
:10100000003738392F3435362A3132332D23303DED
:051010002B2569000022
:10101600010E3C6E000E3D6E000E3E6E000E3F6EE3
:10102600000E406E3950D8A41BEF08F01DEF08F0F3
:1010360041EF0AF0000E3C6E86EF0AF0AC98AC94D5
:10104600B8963950D96EDA6ADECF3AF0DDCF3BF08A
:101056003AC002F03BC003F0046A056A000EF8ECE1
:101066000FF002C014F003C015F004C016F005C05E
:1010760017F0000E106E240E116EF40E126E4A0E4C
:10108600136EE8EC0CF010C041F011C042F012C033
:1010960043F013C044F0000E146E000E156E800E61
:1010A600166E420E176E41C010F042C011F043C0DA
:1010B60012F044C013F0E8EC0CF010C029F011C097
:1010C6002AF012C02BF013C02CF0000E2D6E000E6D
:1010D6002E6E800E2F6EBF0E306E88EC0AF029C081
:1010E6003DF02AC03EF02BC03FF02CC040F06BEF25
:1010F6000AF0AC98AC84B8963950D96EDA6ADECF6D
:101106003AF0DDCF3BF03AC002F03BC003F0046A90
:10111600056A000EF8EC0FF002C014F003C015F0DB
:1011260004C016F005C017F0000E106E240E116EE6
:10113600F40E126E4A0E136EE8EC0CF010C041F07D
:1011460011C042F012C043F013C044F0000E146EFA
:10115600000E156E800E166E410E176E41C010F011
:1011660042C011F043C012F044C013F0E8EC0CF09A
:1011760010C029F011C02AF012C02BF013C02CF0B9
:10118600000E2D6E000E2E6E800E2F6EBF0E306E70
:1011960088EC0AF029C03DF02AC03EF02BC03FF093
:1011A6002CC040F06BEF0AF0AC98AC94B88639507E
:1011B600D96EDA6ADECF3AF0DDCF3BF03AC002F004
:1011C6003BC003F0046A056A000EF8EC0FF002C09B
:1011D60014F003C015F004C016F005C017F0000E99
:1011E600106E240E116EF40E126E4A0E136EE8EC9B
:1011F6000CF010C041F011C042F012C043F013C011
:1012060044F0000E146E000E156E800E166E410E22
:10121600176E41C010F042C011F043C012F044C036
:1012260013F0E8EC0CF010C029F011C02AF012C03F
:101236002BF013C02CF0000E2D6E000E2E6E800EBD
:101246002F6EBF0E306E88EC0AF029C03DF02AC022
:101256003EF02BC03FF02CC040F06BEF0AF0AC988C
:10126600AC84B8863950D96EDA6ADECF3AF0DDCF73
:101276003BF03AC002F03BC003F0046A056A000E78
:10128600F8EC0FF002C014F003C015F004C016F01D
:1012960005C017F0000E106E240E116EF40E126EBD
:1012A6004A0E136EE8EC0CF010C041F011C042F08B
:1012B60012C043F013C044F0000E146E000E156EFB
:1012C600800E166E400E176E41C010F042C011F02F
:1012D60043C012F044C013F0E8EC0CF010C029F043
:1012E60011C02AF012C02BF013C02CF0000E2D6E88
:1012F600000E2E6E800E2F6EBF0E306E88EC0AF03A
:1013060029C03DF02AC03EF02BC03FF02CC040F073
:101316006BEF0AF0AC88B8963950D96EDA6ADECF30
:101326003AF0DDCF3BF03AC002F03BC003F0046A6E
:10133600056A000EF8EC0FF002C014F003C015F0B9
:1013460004C016F005C017F0000E106E240E116EC4
:10135600F40E126E4A0E136EE8EC0CF010C041F05B
:1013660011C042F012C043F013C044F0000E146ED8
:10137600000E156E800E166E400E176E41C010F0F0
:1013860042C011F043C012F044C013F0E8EC0CF078
:1013960010C029F011C02AF012C02BF013C02CF097
:1013A600000E2D6E000E2E6E800E2F6EBF0E306E4E
:1013B60088EC0AF029C03DF02AC03EF02BC03FF071
:1013C6002CC040F06BEF0AF0AC88B8863950D96E65
:1013D600DA6ADECF3AF0DDCF3BF03AC002F03BC02E
:1013E60003F0046A056A000EF8EC0FF002C014F070
:1013F60003C015F004C016F005C017F0000E106EFD
:10140600240E116EF40E126E4A0E136EE8EC0CF0FA
:1014160010C041F011C042F012C043F013C044F0B6
:10142600000E146E000E156E800E166E400E176EB0
:1014360041C010F042C011F043C012F044C013F096
:10144600E8EC0CF010C029F011C02AF012C02BF005
:1014560013C02CF0000E2D6E000E2E6E800E2F6E19
:10146600BF0E306E88EC0AF029C03DF02AC03EF06F
:101476002BC03FF02CC040F06BEF0AF03950D96E0C
:10148600DA6A020ED926DF503A6E3B6A3B50000AF2
:10149600D8B450EF0AF06BEF0AF03A50000AD8B40D
:1014A60021EF08F0010AD8B47CEF08F0030AD8B49B
:1014B600D7EF08F0010AD8B432EF09F0070AD8B41A
:1014C6008DEF09F0010AD8B4E7EF09F06BEF0AF0E7
:1014D6003DC002F03EC003F03FC004F040C005F03E
:1014E600E3EC11F00250AF6E3DC002F03EC003F0D7
:1014F6003FC004F040C005F0E3EC11F003C002F079
:10150600036A0250B06E3C5012002C50800B356EB0
:101516002C502C24376E2BAE93EF0AF095EF0AF081
:1015260096EF0AF037803750D8B49CEF0AF09EEF5A
:101536000AF0B3EF0AF03728D8A4A4EF0AF0A6EF12
:101546000AF0AEEF0AF0000E296E000E2A6E000EAB
:101556002B6E000E2C6E2B8E000E2C6EBBEF0AF03F
:10156600000E296E000E2A6E000E2B6E000E2C6EDB
:101576003050800B366E35503618D8B4C5EF0AF0A9
:10158600C7EF0AF0C8EF0AF0358C30503024366EBB
:101596002FAED0EF0AF0D2EF0AF0D3EF0AF0368082
:1015A6003650D8B4D9EF0AF0DBEF0AF0F0EF0AF0C4
:1015B6003628D8A4E1EF0AF0E3EF0AF0EBEF0AF0E1
:1015C600000E2D6E000E2E6E000E2F6E000E306E6B
:1015D6002F8E000E306EF8EF0AF0000E2D6E000E04
:1015E6002E6E000E2F6E000E306E3750365CD8B061
:1015F600FFEF0AF001EF0BF028EF0BF035AC06EF2A
:101606000BF008EF0BF00AEF0BF0800E351A37C01F
:1016160038F036C037F038C036F029C038F02DC063
:1016260029F038C02DF02AC038F02EC02AF038C074
:101636002EF02BC038F02FC02BF038C02FF02CC066
:1016460038F030C02CF038C030F0000E386E37500D
:1016560036C031F0326A315E000E325A32BE3DEF8C
:101666000BF0325009E11A0E315CD8A03DEF0BF0B9
:101676003FEF0BF076EF0BF029502A102B102C10B1
:10168600D8A448EF0BF04BEF0BF0010E4CEF0BF02C
:10169600000E386E000E296E000E2A6E000E2B6E9E
:1016A600000E2C6E36C037F07FEF0BF038A05EEFE1
:1016B6000BF060EF0BF066EF0BF0D89038300109B5
:1016C600386E68EF0BF0D890383229A06DEF0BF02A
:1016D6006FEF0BF070EF0BF0388E2C342C322B3270
:1016E6002A322932372A3650375CD8A07DEF0BF0E4
:1016F6007FEF0BF059EF0BF035BC84EF0BF086EF64
:101706000BF0C6EF0BF03750D8A48CEF0BF08EEF32
:101716000BF098EF0BF0000E296E000E2A6E000EED
:101726002B6E000E2C6EE7EF0CF02D5029262E5056
:101736002A222F502B2230502C222CA0A5EF0BF062
:10174600A7EF0BF053EF0CF038A0ACEF0BF0AEEFB9
:101756000BF0B4EF0BF0D89038300109386EB6EFC5
:101766000BF0D890383229A0BBEF0BF0BDEF0BF091
:10177600BEEF0BF0388E2C342C322B322A32293223
:10178600372A53EF0CF02D50295C2E502A582F5033
:101796002B582C50800A316E3050800A3158D8B000
:1017A600D7EF0BF0D9EF0BF004EF0CF029502D5CBE
:1017B600316E2A502E58326E2B502F58336E2C50C5
:1017C6003058346EFF0E3124296EFF0E32202A6EF9
:1017D600FF0E33202B6EFF0E34202C6E800E351A32
:1017E600386C3850D8A4FAEF0BF0FCEF0BF00CEF86
:1017F6000CF0010E2926000E2A222B222C220CEF99
:101806000CF02D50295E2E502A5A2F502B5A30504C
:101816002C5A29502A102B102C10D8A415EF0CF096
:1018260017EF0CF04CEF0CF03850D8A41DEF0CF06D
:101836001FEF0CF04CEF0CF0000E296E000E2A6E16
:10184600000E2B6E000E2C6EE7EF0CF0D8902936AA
:101856002A362B362C3638AE33EF0CF035EF0CF03B
:1018660036EF0CF0298038A03BEF0CF03DEF0CF082
:1018760041EF0CF0D880383643EF0CF0D89038366C
:101886003750D8B449EF0CF04BEF0CF04CEF0CF09E
:1018960037062BAE51EF0CF053EF0CF029EF0CF09E
:1018A600000E366E38AE5AEF0CF05CEF0CF074EFAB
:1018B6000CF038C031F07F0E3116D8B465EF0CF05D
:1018C60067EF0CF06BEF0CF0010E366E74EF0CF058
:1018D60029A070EF0CF072EF0CF074EF0CF067EFCC
:1018E6000CF03650D8B47AEF0CF07CEF0CF0A7EF82
:1018F6000CF0010E2926000E2A222B222C222CA0C7
:1019060087EF0CF089EF0CF0A7EF0CF029C031F04F
:101916002AC032F02BC033F02CC034F034343432C9
:1019260033323232313231C029F032C02AF033C07C
:101936002BF034C02CF03728D8B4A4EF0CF0A6EF67
:101946000CF0A7EF0CF0372A3728D8B4ADEF0CF01F
:10195600AFEF0CF0B7EF0CF03750D8A4B5EF0CF0A2
:10196600B7EF0CF0C9EF0CF0000E296E000E2A6ED0
:10197600000E2B6E000E2C6E3750D8A4C5EF0CF05F
:10198600C7EF0CF0C9EF0CF0000E356E37A0CEEFA6
:101996000CF0D0EF0CF0D3EF0CF02B8ED4EF0CF054
:1019A6002B9ED89037302C6E35AEDCEF0CF0DEEF88
:1019B6000CF0DFEF0CF02C8E29C029F02AC02AF09B
:1019C6002BC02BF02CC02CF012001350800B206E75
:1019D60013501324276E12AEF3EF0CF0F5EF0CF054
:1019E600F6EF0CF027802750D8B4FCEF0CF0FEEF92
:1019F6000CF013EF0DF02728D8A404EF0DF006EF36
:101A06000DF00EEF0DF0000E106E000E116E000EB2
:101A1600126E000E136E128E000E136E1BEF0DF07B
:101A2600000E106E000E116E000E126E000E136E7A
:101A36001750800B201A17501724286E16AE26EF63
:101A46000DF028EF0DF029EF0DF028802850D8B4BE
:101A56002FEF0DF031EF0DF046EF0DF02828D8A44A
:101A660037EF0DF039EF0DF041EF0DF0000E146E6B
:101A7600000E156E000E166E000E176E168E000EF8
:101A8600176E4EEF0DF0000E146E000E156E000E62
:101A9600166E000E176E1450151016101710D8A4D7
:101AA60057EF0DF059EF0DF071EF0DF0000E106EBF
:101AB600000E116E000E126E000E136E800E1212C4
:101AC6007F0E13122050131210C010F011C011F027
:101AD60012C012F013C013F0B4EF0EF02750D8A4C2
:101AE60077EF0DF079EF0DF083EF0DF0000E106E2D
:101AF600000E116E000E126E000E136EB4EF0EF095
:101B0600285027C018F0196A185E000E195A7F0E61
:101B16001824216E000E1920226E10C01CF011C070
:101B26001DF012C01EF013C01FF0000E106E000E46
:101B3600116E000E126E000E136E000E236E000E56
:101B4600246E000E256E000E266E000E286EE4EF43
:101B56000DF02850D8B4B2EF0DF0B4EF0DF0CBEF86
:101B66000DF0D8901C361D361E361F36D89010360E
:101B760011361236133626AEC3EF0DF0C5EF0DF053
:101B8600C6EF0DF01080D89023362436253626363B
:101B960014501C5C15501D5816501E5817501F58CF
:101BA600D8A0D8EF0DF0DAEF0DF0E3EF0DF0268CAC
:101BB60014501C5E15501D5A16501E5A17501F5AA7
:101BC600282A190E2864EAEF0DF0ECEF0DF0ACEFC1
:101BD6000DF01C501D101E101F10D8B4F5EF0DF09F
:101BE600F7EF0DF00FEF0EF023800FEF0EF0D89009
:101BF600103611361236133626AE04EF0EF006EF07
:101C06000EF007EF0EF01080D890233624362536D6
:101C160026362106D8A0220612AE14EF0EF016EFD5
:101C26000EF0FAEF0DF0000E286E26AE1DEF0EF048
:101C36001FEF0EF043EF0EF0FF0E2314186EFF0E8B
:101C46002414196EFF0E25141A6E7F0E26141B6EB1
:101C5600185019101A101B10D8B434EF0EF036EFC6
:101C66000EF03AEF0EF0010E286E43EF0EF010A0C4
:101C76003FEF0EF041EF0EF043EF0EF036EF0EF0B1
:101C86002850D8B449EF0EF04BEF0EF06FEF0EF080
:101C9600010E1026000E11221222132213A056EF57
:101CA6000EF058EF0EF06FEF0EF010C018F011C0E6
:101CB60019F012C01AF013C01BF01B341B321A3273
:101CC6001932183218C010F019C011F01AC012F0EB
:101CD6001BC013F0214A222A22BE7AEF0EF02250B0
:101CE60008E12128D8A07AEF0EF07CEF0EF087EFFE
:101CF6000EF0000E226E2168000E106E000E116EA0
:101D0600000E126E000E136E22BE94EF0EF02250DD
:101D160006E12104D8B092EF0EF094EF0EF0A2EF98
:101D26000EF0000E226E000E216E000E106E000EDA
:101D3600116E000E126E000E136E000E206E21C084
:101D460027F027A0A9EF0EF0ABEF0EF0AEEF0EF0E6
:101D5600128EAFEF0EF0129ED8902730136E65EFFD
:101D66000DF012000600F2A8BBEF0EF0BDEF0EF06C
:101D7600C6EF0EF0F2A2C2EF0EF0C4EF0EF0C6EF01
:101D86000EF06CEC14F0F0A6CBEF0EF0CDEF0EF0EB
:101D9600D6EF0EF0F0A0D2EF0EF0D4EF0EF0D6EFA5
:101DA6000EF06AEC14F0F0A8DBEF0EF0DDEF0EF0AB
:101DB600E6EF0EF0F0A2E2EF0EF0E4EF0EF0E6EF43
:101DC6000EF068EC14F0F2A6EBEF0EF0EDEF0EF06D
:101DD60008EF0FF0F2A0F2EF0EF0F4EF0EF008EFBE
:101DE6000FF081A8F9EF0EF0FBEF0EF008EF0FF001
:101DF6007A04D8A401EF0FF003EF0FF008EF0FF00D
:101E0600000E7A6E000E34EC14F0F2A60DEF0FF011
:101E16000FEF0FF02AEF0FF0F2A014EF0FF016EF0E
:101E26000FF02AEF0FF081B81BEF0FF01DEF0FF048
:101E36002AEF0FF07A50D8A423EF0FF025EF0FF01A
:101E46002AEF0FF0010E7A6E010E34EC14F0F2A6B2
:101E56002FEF0FF031EF0FF04CEF0FF0F2A036EF4F
:101E66000FF038EF0FF04CEF0FF081AA3DEF0FF0B7
:101E76003FEF0FF04CEF0FF07904D8A445EF0FF0C9
:101E860047EF0FF04CEF0FF0000E796E000E27ECC7
:101E960014F0F2A651EF0FF053EF0FF06EEF0FF0C4
:101EA600F2A058EF0FF05AEF0FF06EEF0FF081BA75
:101EB6005FEF0FF061EF0FF06EEF0FF07950D8A4DF
:101EC60067EF0FF069EF0FF06EEF0FF0010E796E0E
:101ED600010E27EC14F0F2A673EF0FF075EF0FF07A
:101EE60090EF0FF0F2A07AEF0FF07CEF0FF090EF8B
:101EF6000FF081AC81EF0FF083EF0FF090EF0FF052
:101F06007804D8A489EF0FF08BEF0FF090EF0FF065
:101F1600000E786E000E1AEC14F0F2A695EF0FF094
:101F260097EF0FF0B2EF0FF0F2A09CEF0FF09EEFDD
:101F36000FF0B2EF0FF081BCA3EF0FF0A5EF0FF09B
:101F4600B2EF0FF07850D8A4ABEF0FF0ADEF0FF073
:101F5600B2EF0FF0010E786E010E1AEC14F0F2A635
:101F6600B7EF0FF0B9EF0FF0D4EF0FF0F2A0BEEF1E
:101F76000FF0C0EF0FF0D4EF0FF081AEC5EF0FF00A
:101F8600C7EF0FF0D4EF0FF07704D8A4CDEF0FF022
:101F9600CFEF0FF0D4EF0FF0000E776E000E0DECC2
:101FA60014F0F2A6D9EF0FF0DBEF0FF0F6EF0FF01B
:101FB600F2A0E0EF0FF0E2EF0FF0F6EF0FF081BEC8
:101FC600E7EF0FF0E9EF0FF0F6EF0FF07750D8A438
:101FD600EFEF0FF0F1EF0FF0F6EF0FF0010E776E67
:101FE600010E0DEC14F07E9211000A6E0A50D8B460
:101FF600FFEF0FF001EF10F023EF10F005BE08EF32
:1020060010F006EF10F023EF10F002C006F003C048
:1020160007F004C008F005C009F0061E071E081EDA
:10202600091E062A000E07220822092206C00CF005
:1020360007C00DF008C00EF009C00FF02BEF10F02E
:1020460002C00CF003C00DF004C00EF005C00FF086
:102056000250031004100510D8A434EF10F036EF28
:1020660010F040EF10F0000E026E000E036E000E30
:10207600046E000E056ED1EF10F0960E0B6E4AEF51
:1020860010F00B2AD8900F320E320D320C32000EA1
:102096000C14066E000E0D14076E000E0E14086E5C
:1020A600FE0E0F14096E0650071008100910D8A46A
:1020B6005FEF10F061EF10F044EF10F06FEF10F0EB
:1020C6000B2A010E0C26000E0D220E220F22D8908E
:1020D6000F320E320D320C32000E0C14066E000E4C
:1020E6000D14076E000E0E14086EFF0E0F14096E07
:1020F6000650071008100910D8A484EF10F086EFD8
:1021060010F063EF10F08EEF10F00B06D8900C363F
:102116000D360E360F360EBE93EF10F095EF10F01B
:102126009DEF10F0020E0B609BEF10F09DEF10F08C
:1021360088EF10F00BB0A2EF10F0A4EF10F0A5EFAF
:1021460010F00E9ED8900B320BC006F0076A086A94
:10215600096A06C009F0086A076A066A06500C1280
:1021660007500D1208500E1209500F120A50D8B41B
:10217600BFEF10F0C1EF10F0C9EF10F005BEC8EFC9
:1021860010F0C6EF10F0C9EF10F00F8E0CC002F081
:102196000DC003F00EC004F00FC005F01200010ED2
:1021A600086E0250D8B4DAEF10F0DCEF10F0ECEF66
:1021B60010F00250D96EDA6ADF30E832E832070BE7
:1021C600036E070E0364EAEF10F0ECEF10F043EF36
:1021D60011F0000E086E59EF11F00250D96EDA6A4E
:1021E600DF30E832E832070B036E010E046E032A75
:1021F600FFEF10F0D8900436032EFDEF10F00450D8
:10220600FF0A056E0250D96EDA6ADF50070B020D1F
:10221600F350900FD96EDA6ADECF06F0DDCF07F005
:1022260006C0D9FF07C0DAFF0550DF1659EF11F0D7
:102236000250D96EDA6ADF30E832E832070B036EF5
:10224600010E046E032A2AEF11F0D8900436032EED
:1022560028EF11F00250D96EDA6ADF50070B020D33
:10226600F350900FD96EDA6ADECF05F0DDCF06F0B7
:1022760005C0D9FF06C0DAFF0450DF1259EF11F08E
:102286000250D96EDA6ADFBC4BEF11F04EEF11F057
:10229600010E4FEF11F0000E000AD8B4F0EF10F067
:1022A600010AD8B41BEF11F0ECEF10F00850120041
:1022B600010E096E0250D8B463EF11F065EF11F00C
:1022C60075EF11F00250D96EDA6ADF30E832E83283
:1022D600070B046E070E046473EF11F075EF11F02F
:1022E600CCEF11F0000E096EE1EF11F00250D96E3D
:1022F600DA6ADF30E832E832070B046E010E056E4B
:10230600042A88EF11F0D8900536042E86EF11F0D6
:102316000550FF0A066E0250D96EDA6ADF50070BC7
:10232600020DF350880FD96EDA6ADECF07F0DDCFE3
:1023360008F007C0D9FF08C0DAFF0650DF16E1EF44
:1023460011F00250D96EDA6ADF30E832E832070B54
:10235600046E010E056E042AB3EF11F0D89005360F
:10236600042EB1EF11F00250D96EDA6ADF50070B76
:10237600020DF350880FD96EDA6ADECF06F0DDCF94
:1023860007F006C0D9FF07C0DAFF0550DF12E1EFFC
:1023960011F00350046E056A0550000AD8B4D6EF52
:1023A60011F075EF11F00450000AD8B479EF11F06E
:1023B600010AD8B4A4EF11F075EF11F0095012001C
:1023C600043405340B6E0B50D8A4ECEF11F0EEEF8D
:1023D60011F0F8EF11F0000E026E000E036E000E03
:1023E600046E000E056E65EF12F002C006F003C023
:1023F60007F004C008F005C009F0200E08EF12F03F
:10240600D8900932083207320632E82E03EF12F06E
:1024160006500A6E048EFF0E0216FF0E0316FF0EFE
:102426000416000E0516960E0B5E0BBE1FEF12F07D
:102436001DEF12F035EF12F00B50800A970FD8B04F
:1024460027EF12F029EF12F02BEF12F0EEEF11F05A
:10245600D89005320432033202320B3E2BEF12F0D3
:102466004DEF12F01F0E0B643BEF12F03DEF12F032
:1024760045EF12F0EEEF11F0D8900236033604362F
:1024860005360B060B50D8A44BEF12F04DEF12F0A9
:102496003FEF12F00A50D8B453EF12F055EF12F096
:1024A6005DEF12F0051E041E031E026C000E0322D1
:1024B6000422052202C002F003C003F004C004F0A7
:1024C60005C005F01200010E036E0250D8A46EEF8F
:1024D60012F070EF12F074EF12F0000E036EBBEF05
:1024E60012F00250D96EDA6A030ED926DFAA7EEF01
:1024F60012F080EF12F0BBEF12F0AC8A0250D96EE8
:10250600DA6A030ED926DFAC8BEF12F08DEF12F0EC
:1025160090EF12F09D889DEF12F00250D96EDA6AA4
:10252600030ED926DFBC9AEF12F09CEF12F09DEF56
:1025360012F09D980250D96EDA6A030ED926DFAEE4
:10254600A7EF12F0A9EF12F0ACEF12F0AC8CBBEFD4
:1025560012F00250D96EDA6A030ED926DFBEB6EF44
:1025660012F0B8EF12F0BBEF12F0AC9CBBEF12F01A
:1025760003501200010E036E0250D8A4C5EF12F0EC
:10258600C7EF12F0CBEF12F0000E036E12EF13F04E
:102596000250D96EDA6A040ED926DFAAD5EF12F0F8
:1025A600D7EF12F012EF13F0AB880250D96EDA6A49
:1025B600040ED926DFACE2EF12F0E4EF12F0E7EFFB
:1025C60012F09D8AF4EF12F00250D96EDA6A040E08
:1025D600D926DFBCF1EF12F0F3EF12F0F4EF12F0B0
:1025E6009D9A0250D96EDA6A040ED926DFAEFEEF46
:1025F60012F000EF13F003EF13F0AB8C12EF13F0B1
:102606000250D96EDA6A040ED926DFBE0DEF13F03A
:102616000FEF13F012EF13F0AB9C12EF13F0035011
:102626001200010E0F6E0D50D8A41CEF13F01EEF12
:1026360013F022EF13F0000E0F6E4AEF13F076C080
:1026460010F00D50D96EDA6ADF500F0B0E6E105077
:102656000E18F80B0E18106E0D50D96EDA6ADF38A8
:10266600070B0E6E0E460E460E4610500E18C70B82
:102676000E18106E109C0D50D96EDA6ADFAE02D0BD
:10268600108E01D0109E100E0A6E4CEC13F00F50F7
:1026960012000A50D8B452EF13F054EF13F064EF5F
:1026A60013F00A50D96EDA6ADF30E832E832070BE7
:1026B6000B6E070E0B6462EF13F064EF13F068EF16
:1026C60013F0000E0C6E79EF13F00AC002F0D2EC94
:1026D60010F00C6E0AC002F00A50D96EDA6A000ECB
:1026E600DFBE010E036E5BEC11F00C6E0C50120097
:1026F600820EF66E280EF76E000EF86E00EE80F073
:1027060010EE18F00900F5CFEEFFE550E150FAE1C2
:10271600C40EF66E280EF76E000EF86E00EE77F019
:1027260010EE06F00900F5CFEEFFE550E150FAE1B4
:1027360000EE57F0200EEE6AE806FDE17E907E92EE
:102746000001A6EF13F065EC14F0CAEC13F06F0E5F
:102756004DEC14F00B0E566E260E556E5E0EE82EE0
:10276600FED7552EFCD7562EFAD7660E4DEC14F032
:102776000B0E566E260E556E5E0EE82EFED7552EA5
:10278600FCD7562EFAD7AAEF13F007EF00F0250E66
:10279600486E800E476E000E496E4A8A4A9C4A9ED3
:1027A6004B8A4B9C4B9E000E4D6E000E4E6E000EDD
:1027B6004F6E000E506E000E516E000E526E000EE1
:1027C600536E000E546E470E456EECEC13F07D6EA4
:1027D60012004550D8A4F2EF13F0F4EF13F0F8EF1F
:1027E60013F0000E466E0BEF14F0AB9E948C948E95
:1027F60045C039F00BEC08F0466E45C002F066ECB9
:1028060012F0466E45C002F0BDEC12F0466EAB8E7D
:1028160046501200016EF2900150D8A415EF14F044
:1028260017EF14F019EF14F019EF14F01200016EFF
:10283600F2900150D8A422EF14F024EF14F026EF02
:1028460014F026EF14F01200016EF2900150D8A495
:102856002FEF14F031EF14F033EF14F033EF14F0E0
:102866001200016EF2900150D8A43CEF14F03EEF36
:1028760014F040EF14F040EF14F01200800F810FB7
:10288600820F830F890F8A0F8B0F8C0F920F930F76
:10289600940F950F026EACA253EF14F055EF14F09F
:1028A6004EEF14F002C0ADFF010E12007C0E0D6E4D
:1028B60014EC13F07B0E0D6E14EC13F012000101F4
:1028C6000101120359EC14F01200F0921200F0907C
:0628D6001200F292120054
:020000040030CA
:0E000000FF02091EFF8181FF0FC00FE00F40BD
:00000001FF
